{
  "address": "0xd26F05e9047c0bc29085A4B41c78B74221B52739",
  "abi": [
    {
      "inputs": [
        {
          "internalType": "address",
          "name": "_fundDeployer",
          "type": "address"
        },
        {
          "internalType": "address",
          "name": "_addressResolver",
          "type": "address"
        },
        {
          "internalType": "address",
          "name": "_sUSD",
          "type": "address"
        },
        {
          "internalType": "address[]",
          "name": "_synths",
          "type": "address[]"
        }
      ],
      "stateMutability": "nonpayable",
      "type": "constructor"
    },
    {
      "anonymous": false,
      "inputs": [
        {
          "indexed": true,
          "internalType": "address",
          "name": "synth",
          "type": "address"
        },
        {
          "indexed": false,
          "internalType": "bytes32",
          "name": "currencyKey",
          "type": "bytes32"
        }
      ],
      "name": "SynthAdded",
      "type": "event"
    },
    {
      "anonymous": false,
      "inputs": [
        {
          "indexed": true,
          "internalType": "address",
          "name": "synth",
          "type": "address"
        },
        {
          "indexed": false,
          "internalType": "bytes32",
          "name": "prevCurrencyKey",
          "type": "bytes32"
        },
        {
          "indexed": false,
          "internalType": "bytes32",
          "name": "nextCurrencyKey",
          "type": "bytes32"
        }
      ],
      "name": "SynthCurrencyKeyUpdated",
      "type": "event"
    },
    {
      "inputs": [
        {
          "internalType": "address[]",
          "name": "_synths",
          "type": "address[]"
        }
      ],
      "name": "addSynths",
      "outputs": [],
      "stateMutability": "nonpayable",
      "type": "function"
    },
    {
      "inputs": [
        {
          "internalType": "address",
          "name": "_derivative",
          "type": "address"
        },
        {
          "internalType": "uint256",
          "name": "_derivativeAmount",
          "type": "uint256"
        }
      ],
      "name": "calcUnderlyingValues",
      "outputs": [
        {
          "internalType": "address[]",
          "name": "underlyings_",
          "type": "address[]"
        },
        {
          "internalType": "uint256[]",
          "name": "underlyingAmounts_",
          "type": "uint256[]"
        }
      ],
      "stateMutability": "nonpayable",
      "type": "function"
    },
    {
      "inputs": [],
      "name": "getAddressResolver",
      "outputs": [
        {
          "internalType": "address",
          "name": "",
          "type": "address"
        }
      ],
      "stateMutability": "view",
      "type": "function"
    },
    {
      "inputs": [
        {
          "internalType": "address",
          "name": "_synth",
          "type": "address"
        }
      ],
      "name": "getCurrencyKeyForSynth",
      "outputs": [
        {
          "internalType": "bytes32",
          "name": "currencyKey_",
          "type": "bytes32"
        }
      ],
      "stateMutability": "view",
      "type": "function"
    },
    {
      "inputs": [
        {
          "internalType": "address[]",
          "name": "_synths",
          "type": "address[]"
        }
      ],
      "name": "getCurrencyKeysForSynths",
      "outputs": [
        {
          "internalType": "bytes32[]",
          "name": "currencyKeys_",
          "type": "bytes32[]"
        }
      ],
      "stateMutability": "view",
      "type": "function"
    },
    {
      "inputs": [],
      "name": "getFundDeployer",
      "outputs": [
        {
          "internalType": "address",
          "name": "fundDeployer_",
          "type": "address"
        }
      ],
      "stateMutability": "view",
      "type": "function"
    },
    {
      "inputs": [],
      "name": "getOwner",
      "outputs": [
        {
          "internalType": "address",
          "name": "owner_",
          "type": "address"
        }
      ],
      "stateMutability": "view",
      "type": "function"
    },
    {
      "inputs": [],
      "name": "getSUSD",
      "outputs": [
        {
          "internalType": "address",
          "name": "susd_",
          "type": "address"
        }
      ],
      "stateMutability": "view",
      "type": "function"
    },
    {
      "inputs": [
        {
          "internalType": "address",
          "name": "_asset",
          "type": "address"
        }
      ],
      "name": "isSupportedAsset",
      "outputs": [
        {
          "internalType": "bool",
          "name": "isSupported_",
          "type": "bool"
        }
      ],
      "stateMutability": "view",
      "type": "function"
    },
    {
      "inputs": [
        {
          "internalType": "address[]",
          "name": "_synths",
          "type": "address[]"
        }
      ],
      "name": "updateSynthCurrencyKeys",
      "outputs": [],
      "stateMutability": "nonpayable",
      "type": "function"
    }
  ],
  "transactionHash": "0x88225b4a58d30c8857c298d0fc7cbb06b1ba915dde285769313f6d983bf3365a",
  "args": [
    "0xAAC9DADa7D6Aa7D7ABCc671E99c219C25875B66c",
    "0x93A5c5c7547832c8ebFcCAbc2157D43A9c5E68d4",
    "0x190cece40aef39a2a15d8858cafa691f01a909c5",
    [
      "0xf1762903953e3729335be6cf02b846501c9049a8"
    ]
  ],
  "solcInputHash": "1ed26cb306dc88815755ce22053912bc",
  "bytecode": "0x60e06040523480156200001157600080fd5b506040516200143938038062001439833981810160405260808110156200003757600080fd5b8151602083015160408085015160608601805192519496939591949391820192846401000000008211156200006b57600080fd5b9083019060208201858111156200008157600080fd5b82518660208202830111640100000000821117156200009f57600080fd5b82525081516020918201928201910280838360005b83811015620000ce578181015183820152602001620000b4565b5050505060608a811b6001600160601b03199081166080528a821b811660a05289821b1660c05260019190930181815260408082019052929550919350909150506020808301908036833701905050905082816000815181106200012e57fe5b6001600160a01b0390921660209283029190910190910152620001518162000167565b6200015c8262000167565b505050505062000401565b60005b81518110156200031c576000808383815181106200018457fe5b60200260200101516001600160a01b03166001600160a01b03168152602001908152602001600020546000801b1462000204576040805162461bcd60e51b815260206004820152601e60248201527f5f5f61646453796e7468733a2056616c756520616c7265616479207365740000604482015290519081900360640190fd5b60006200022b8383815181106200021757fe5b60200260200101516200032060201b60201c565b90508062000280576040805162461bcd60e51b815260206004820152601b60248201527f5f5f61646453796e7468733a204e6f2063757272656e63794b65790000000000604482015290519081900360640190fd5b806000808585815181106200029157fe5b60200260200101516001600160a01b03166001600160a01b0316815260200190815260200160002081905550828281518110620002ca57fe5b60200260200101516001600160a01b03167f61209fb9d54461f939ea62c8e068ffba9ade97587787c035e7e09d44ebab2cb8826040518082815260200191505060405180910390a2506001016200016a565b5050565b6000816001600160a01b031663d4b839926040518163ffffffff1660e01b815260040160206040518083038186803b1580156200035c57600080fd5b505afa15801562000371573d6000803e3d6000fd5b505050506040513d60208110156200038857600080fd5b50516040805163dbd06c8560e01b815290516001600160a01b039092169163dbd06c8591600480820192602092909190829003018186803b158015620003cd57600080fd5b505afa158015620003e2573d6000803e3d6000fd5b505050506040513d6020811015620003f957600080fd5b505192915050565b60805160601c60a05160601c60c05160601c610ff362000446600039806104ec528061080f5250806104a3528061059b5250806108355280610ac55250610ff36000f3fe608060405234801561001057600080fd5b506004361061009e5760003560e01c8063893d20e811610066578063893d20e8146102c65780638bc3981c146102ce5780638d8c19851461033e57806397c0ac87146103765780639be918e61461037e5761009e565b806347a9b6db146100a357806371c1c54914610115578063727212f6146101395780637827f4f6146101fe57806386eab215146102be575b600080fd5b610113600480360360208110156100b957600080fd5b8101906020810181356401000000008111156100d457600080fd5b8201836020820111156100e657600080fd5b8035906020019184602083028401116401000000008311171561010857600080fd5b5090925090506103b8565b005b61011d6104a1565b604080516001600160a01b039092168252519081900360200190f35b6101656004803603604081101561014f57600080fd5b506001600160a01b0381351690602001356104c5565b604051808060200180602001838103835285818151815260200191508051906020019060200280838360005b838110156101a9578181015183820152602001610191565b50505050905001838103825284818151815260200191508051906020019060200280838360005b838110156101e85781810151838201526020016101d0565b5050505090500194505050505060405180910390f35b61026e6004803603602081101561021457600080fd5b81019060208101813564010000000081111561022f57600080fd5b82018360208201111561024157600080fd5b8035906020019184602083028401116401000000008311171561026357600080fd5b509092509050610755565b60408051602080825283518183015283519192839290830191858101910280838360005b838110156102aa578181015183820152602001610292565b505050509050019250505060405180910390f35b61011d61080d565b61011d610831565b610113600480360360208110156102e457600080fd5b8101906020810181356401000000008111156102ff57600080fd5b82018360208201111561031157600080fd5b8035906020019184602083028401116401000000008311171561033357600080fd5b5090925090506108bd565b6103646004803603602081101561035457600080fd5b50356001600160a01b0316610aa8565b60408051918252519081900360200190f35b61011d610ac3565b6103a46004803603602081101561039457600080fd5b50356001600160a01b0316610ae7565b604080519115158252519081900360200190f35b6103c0610831565b6001600160a01b0316336001600160a01b03161461040f5760405162461bcd60e51b8152600401808060200182810382526049815260200180610ec56049913960600191505060405180910390fd5b80610461576040805162461bcd60e51b815260206004820152601860248201527f61646453796e7468733a20456d707479205f73796e7468730000000000000000604482015290519081900360640190fd5b61049d828280806020026020016040519081016040528093929190818152602001838360200280828437600092019190915250610afa92505050565b5050565b7f000000000000000000000000000000000000000000000000000000000000000090565b604080516001808252818301909252606091829190602080830190803683370190505091507f00000000000000000000000000000000000000000000000000000000000000008260008151811061051857fe5b6001600160a01b0392909216602092830291909101820152604080516001808252818301909252918281019080368337019050509050600061055985610aa8565b9050806105975760405162461bcd60e51b8152600401808060200182810382526032815260200180610e686032913960400191505060405180910390fd5b60007f00000000000000000000000000000000000000000000000000000000000000006001600160a01b031663dacb2d016040518163ffffffff1660e01b815260040180806c45786368616e6765526174657360981b815250602001806020018281038252602b815260200180610e9a602b913960400191505060206040518083038186803b15801561062957600080fd5b505afa15801561063d573d6000803e3d6000fd5b505050506040513d602081101561065357600080fd5b505160408051630c71cd2360e01b815260048101859052815192935060009283926001600160a01b03861692630c71cd239260248083019392829003018186803b1580156106a057600080fd5b505afa1580156106b4573d6000803e3d6000fd5b505050506040513d60408110156106ca57600080fd5b508051602090910151909250905080156107155760405162461bcd60e51b8152600401808060200182810382526033815260200180610f656033913960400191505060405180910390fd5b610731670de0b6b3a764000061072b8985610c9f565b90610cff565b8560008151811061073e57fe5b602002602001018181525050505050509250929050565b60608167ffffffffffffffff8111801561076e57600080fd5b50604051908082528060200260200182016040528015610798578160200160208202803683370190505b50905060005b82811015610805576000808585848181106107b557fe5b905060200201356001600160a01b03166001600160a01b03166001600160a01b03168152602001908152602001600020548282815181106107f257fe5b602090810291909101015260010161079e565b505b92915050565b7f000000000000000000000000000000000000000000000000000000000000000090565b60007f00000000000000000000000000000000000000000000000000000000000000006001600160a01b031663893d20e86040518163ffffffff1660e01b815260040160206040518083038186803b15801561088c57600080fd5b505afa1580156108a0573d6000803e3d6000fd5b505050506040513d60208110156108b657600080fd5b5051905090565b806108f95760405162461bcd60e51b8152600401808060200182810382526026815260200180610e426026913960400191505060405180910390fd5b60005b81811015610aa357600080600085858581811061091557fe5b905060200201356001600160a01b03166001600160a01b03166001600160a01b03168152602001908152602001600020549050806000801b141561098a5760405162461bcd60e51b8152600401808060200182810382526026815260200180610f986026913960400191505060405180910390fd5b60006109b085858581811061099b57fe5b905060200201356001600160a01b0316610d66565b9050818114156109f15760405162461bcd60e51b8152600401808060200182810382526036815260200180610f0e6036913960400191505060405180910390fd5b80600080878787818110610a0157fe5b905060200201356001600160a01b03166001600160a01b03166001600160a01b0316815260200190815260200160002081905550848484818110610a4157fe5b905060200201356001600160a01b03166001600160a01b03167f55ae8b6fd923a02180a807d2eb1ef5bd50db0347ca1be7ab7f5f1680cb8301978383604051808381526020018281526020019250505060405180910390a250506001016108fc565b505050565b6001600160a01b031660009081526020819052604090205490565b7f000000000000000000000000000000000000000000000000000000000000000090565b6000610af282610aa8565b151592915050565b60005b815181101561049d57600080838381518110610b1557fe5b60200260200101516001600160a01b03166001600160a01b03168152602001908152602001600020546000801b14610b94576040805162461bcd60e51b815260206004820152601e60248201527f5f5f61646453796e7468733a2056616c756520616c7265616479207365740000604482015290519081900360640190fd5b6000610bb2838381518110610ba557fe5b6020026020010151610d66565b905080610c06576040805162461bcd60e51b815260206004820152601b60248201527f5f5f61646453796e7468733a204e6f2063757272656e63794b65790000000000604482015290519081900360640190fd5b80600080858581518110610c1657fe5b60200260200101516001600160a01b03166001600160a01b0316815260200190815260200160002081905550828281518110610c4e57fe5b60200260200101516001600160a01b03167f61209fb9d54461f939ea62c8e068ffba9ade97587787c035e7e09d44ebab2cb8826040518082815260200191505060405180910390a250600101610afd565b600082610cae57506000610807565b82820282848281610cbb57fe5b0414610cf85760405162461bcd60e51b8152600401808060200182810382526021815260200180610f446021913960400191505060405180910390fd5b9392505050565b6000808211610d55576040805162461bcd60e51b815260206004820152601a60248201527f536166654d6174683a206469766973696f6e206279207a65726f000000000000604482015290519081900360640190fd5b818381610d5e57fe5b049392505050565b6000816001600160a01b031663d4b839926040518163ffffffff1660e01b815260040160206040518083038186803b158015610da157600080fd5b505afa158015610db5573d6000803e3d6000fd5b505050506040513d6020811015610dcb57600080fd5b50516040805163dbd06c8560e01b815290516001600160a01b039092169163dbd06c8591600480820192602092909190829003018186803b158015610e0f57600080fd5b505afa158015610e23573d6000803e3d6000fd5b505050506040513d6020811015610e3957600080fd5b50519291505056fe75706461746553796e746843757272656e63794b6579733a20456d707479205f73796e74687363616c63556e6465726c79696e6756616c7565733a205f64657269766174697665206973206e6f7420737570706f7274656463616c63556e6465726c79696e6756616c7565733a204d697373696e672045786368616e676552617465736f6e6c7946756e644465706c6f7965724f776e65723a204f6e6c79207468652046756e644465706c6f796572206f776e65722063616e2063616c6c20746869732066756e6374696f6e75706461746553796e746843757272656e63794b6579733a2053796e74682068617320636f72726563742063757272656e63794b6579536166654d6174683a206d756c7469706c69636174696f6e206f766572666c6f7763616c63556e6465726c79696e6756616c7565733a205f646572697661746976652072617465206973206e6f742076616c696475706461746553796e746843757272656e63794b6579733a2053796e7468206e6f7420736574a2646970667358221220fbd4b792ff2ea0c5e613addfdafea54c2477adbc85bf46da3668bcdb36a1e3bf64736f6c634300060c0033",
  "devdoc": {
    "author": "Enzyme Council <security@enzyme.finance>",
    "kind": "dev",
    "methods": {
      "addSynths(address[])": {
        "params": {
          "_synths": "Synths to add"
        }
      },
      "calcUnderlyingValues(address,uint256)": {
        "params": {
          "_derivative": "The derivative to convert",
          "_derivativeAmount": "The amount of the derivative to convert"
        },
        "returns": {
          "underlyingAmounts_": "The amount of each underlying asset for the equivalent derivative amount",
          "underlyings_": "The underlying assets for the _derivative"
        }
      },
      "getAddressResolver()": {
        "returns": {
          "_0": "addressResolver_ The `ADDRESS_RESOLVER` variable value"
        }
      },
      "getCurrencyKeyForSynth(address)": {
        "returns": {
          "currencyKey_": "The currencyKey value"
        }
      },
      "getCurrencyKeysForSynths(address[])": {
        "returns": {
          "currencyKeys_": "The currencyKey values"
        }
      },
      "getFundDeployer()": {
        "returns": {
          "fundDeployer_": "The `FUND_DEPLOYER` variable value"
        }
      },
      "getOwner()": {
        "details": "Ownership is deferred to the owner of the FundDeployer contract",
        "returns": {
          "owner_": "The owner"
        }
      },
      "getSUSD()": {
        "returns": {
          "susd_": "The `SUSD` variable value"
        }
      },
      "isSupportedAsset(address)": {
        "params": {
          "_asset": "The asset to check"
        },
        "returns": {
          "isSupported_": "True if the asset is a supported primitive"
        }
      },
      "updateSynthCurrencyKeys(address[])": {
        "details": "Anybody can call this function",
        "params": {
          "_synths": "Synths to update"
        }
      }
    },
    "title": "SynthetixPriceFeed Contract",
    "version": 1
  },
  "userdoc": {
    "kind": "user",
    "methods": {
      "addSynths(address[])": {
        "notice": "Adds Synths to the price feed"
      },
      "calcUnderlyingValues(address,uint256)": {
        "notice": "Converts a given amount of a derivative to its underlying asset values"
      },
      "getAddressResolver()": {
        "notice": "Gets the `ADDRESS_RESOLVER` variable"
      },
      "getCurrencyKeyForSynth(address)": {
        "notice": "Gets the currencyKey for a given Synth"
      },
      "getCurrencyKeysForSynths(address[])": {
        "notice": "Gets the currencyKey for multiple given Synths"
      },
      "getFundDeployer()": {
        "notice": "Gets the `FUND_DEPLOYER` variable"
      },
      "getOwner()": {
        "notice": "Gets the owner of this contract"
      },
      "getSUSD()": {
        "notice": "Gets the `SUSD` variable"
      },
      "isSupportedAsset(address)": {
        "notice": "Checks whether an asset is a supported primitive of the price feed"
      },
      "updateSynthCurrencyKeys(address[])": {
        "notice": "Updates the cached currencyKey value for specified Synths"
      }
    },
    "notice": "A price feed that uses Synthetix oracles as price sources",
    "version": 1
  },
  "storageLayout": {
    "storage": [
      {
        "astId": 39324,
        "contract": "contracts/release/infrastructure/price-feeds/derivatives/feeds/SynthetixPriceFeed.sol:SynthetixPriceFeed",
        "label": "synthToCurrencyKey",
        "offset": 0,
        "slot": "0",
        "type": "t_mapping(t_address,t_bytes32)"
      }
    ],
    "types": {
      "t_address": {
        "encoding": "inplace",
        "label": "address",
        "numberOfBytes": "20"
      },
      "t_bytes32": {
        "encoding": "inplace",
        "label": "bytes32",
        "numberOfBytes": "32"
      },
      "t_mapping(t_address,t_bytes32)": {
        "encoding": "mapping",
        "key": "t_address",
        "label": "mapping(address => bytes32)",
        "numberOfBytes": "32",
        "value": "t_bytes32"
      }
    }
  }
}