{
  "address": "0xc2AF096BbC1bcAB4361c11deE56d7FfD4400b9F5",
  "abi": [
    {
      "inputs": [
        {
          "internalType": "address",
          "name": "_fundDeployer",
          "type": "address"
        },
        {
          "internalType": "address",
          "name": "_yearnVaultV2Registry",
          "type": "address"
        }
      ],
      "stateMutability": "nonpayable",
      "type": "constructor"
    },
    {
      "anonymous": false,
      "inputs": [
        {
          "indexed": true,
          "internalType": "address",
          "name": "derivative",
          "type": "address"
        },
        {
          "indexed": true,
          "internalType": "address",
          "name": "underlying",
          "type": "address"
        }
      ],
      "name": "DerivativeAdded",
      "type": "event"
    },
    {
      "anonymous": false,
      "inputs": [
        {
          "indexed": true,
          "internalType": "address",
          "name": "derivative",
          "type": "address"
        }
      ],
      "name": "DerivativeRemoved",
      "type": "event"
    },
    {
      "inputs": [
        {
          "internalType": "address[]",
          "name": "_derivatives",
          "type": "address[]"
        },
        {
          "internalType": "address[]",
          "name": "_underlyings",
          "type": "address[]"
        }
      ],
      "name": "addDerivatives",
      "outputs": [],
      "stateMutability": "nonpayable",
      "type": "function"
    },
    {
      "inputs": [
        {
          "internalType": "address",
          "name": "_derivative",
          "type": "address"
        },
        {
          "internalType": "uint256",
          "name": "_derivativeAmount",
          "type": "uint256"
        }
      ],
      "name": "calcUnderlyingValues",
      "outputs": [
        {
          "internalType": "address[]",
          "name": "underlyings_",
          "type": "address[]"
        },
        {
          "internalType": "uint256[]",
          "name": "underlyingAmounts_",
          "type": "uint256[]"
        }
      ],
      "stateMutability": "nonpayable",
      "type": "function"
    },
    {
      "inputs": [],
      "name": "getFundDeployer",
      "outputs": [
        {
          "internalType": "address",
          "name": "fundDeployer_",
          "type": "address"
        }
      ],
      "stateMutability": "view",
      "type": "function"
    },
    {
      "inputs": [],
      "name": "getOwner",
      "outputs": [
        {
          "internalType": "address",
          "name": "owner_",
          "type": "address"
        }
      ],
      "stateMutability": "view",
      "type": "function"
    },
    {
      "inputs": [
        {
          "internalType": "address",
          "name": "_derivative",
          "type": "address"
        }
      ],
      "name": "getUnderlyingForDerivative",
      "outputs": [
        {
          "internalType": "address",
          "name": "underlying_",
          "type": "address"
        }
      ],
      "stateMutability": "view",
      "type": "function"
    },
    {
      "inputs": [],
      "name": "getYearnVaultV2Registry",
      "outputs": [
        {
          "internalType": "address",
          "name": "yearnVaultV2Registry_",
          "type": "address"
        }
      ],
      "stateMutability": "view",
      "type": "function"
    },
    {
      "inputs": [
        {
          "internalType": "address",
          "name": "_asset",
          "type": "address"
        }
      ],
      "name": "isSupportedAsset",
      "outputs": [
        {
          "internalType": "bool",
          "name": "isSupported_",
          "type": "bool"
        }
      ],
      "stateMutability": "view",
      "type": "function"
    },
    {
      "inputs": [
        {
          "internalType": "address[]",
          "name": "_derivatives",
          "type": "address[]"
        }
      ],
      "name": "removeDerivatives",
      "outputs": [],
      "stateMutability": "nonpayable",
      "type": "function"
    }
  ],
  "transactionHash": "0xeb5779785b8e919c15719eddf10d6e1675fd4bfd697610d376d1635dbcc1f887",
  "args": [
    "0xf42Ba848D527c424045ffCC1B3e683A8287Ee9cF",
    "0x50c1a2eA0a861A967D9d0FFE2AE4012c2E053804"
  ],
  "solcInputHash": "1ed26cb306dc88815755ce22053912bc",
  "bytecode": "0x60c060405234801561001057600080fd5b5060405161114a38038061114a8339818101604052604081101561003357600080fd5b5080516020909101516001600160601b0319606092831b8116608052911b1660a05260805160601c60a05160601c6110c761008360003980610b9a5250806109315280610b7652506110c76000f3fe608060405234801561001057600080fd5b50600436106100885760003560e01c80638f72b1361161005b5780638f72b136146102c557806397c0ac8714610368578063981dc8e4146103705780639be918e61461037857610088565b806339cbb63c1461008d57806366adb867146101b6578063727212f6146101f8578063893d20e8146102bd575b600080fd5b6101b4600480360360408110156100a357600080fd5b8101906020810181356401000000008111156100be57600080fd5b8201836020820111156100d057600080fd5b803590602001918460208302840111640100000000831117156100f257600080fd5b919080806020026020016040519081016040528093929190818152602001838360200280828437600092019190915250929594936020810193503591505064010000000081111561014257600080fd5b82018360208201111561015457600080fd5b8035906020019184602083028401116401000000008311171561017657600080fd5b9190808060200260200160405190810160405280939291908181526020018383602002808284376000920191909152509295506103b2945050505050565b005b6101dc600480360360208110156101cc57600080fd5b50356001600160a01b031661071f565b604080516001600160a01b039092168252519081900360200190f35b6102246004803603604081101561020e57600080fd5b506001600160a01b03813516906020013561073d565b604051808060200180602001838103835285818151815260200191508051906020019060200280838360005b83811015610268578181015183820152602001610250565b50505050905001838103825284818151815260200191508051906020019060200280838360005b838110156102a757818101518382015260200161028f565b5050505090500194505050505060405180910390f35b6101dc61092d565b6101b4600480360360208110156102db57600080fd5b8101906020810181356401000000008111156102f657600080fd5b82018360208201111561030857600080fd5b8035906020019184602083028401116401000000008311171561032a57600080fd5b9190808060200260200160405190810160405280939291908181526020018383602002808284376000920191909152509295506109b9945050505050565b6101dc610b74565b6101dc610b98565b61039e6004803603602081101561038e57600080fd5b50356001600160a01b0316610bbc565b604080519115158252519081900360200190f35b6103ba61092d565b6001600160a01b0316336001600160a01b0316146104095760405162461bcd60e51b8152600401808060200182810382526049815260200180610fb96049913960600191505060405180910390fd5b60008251116104495760405162461bcd60e51b81526004018080602001828103825260228152602001806110446022913960400191505060405180910390fd5b805182511461049f576040805162461bcd60e51b815260206004820152601e60248201527f61646444657269766174697665733a20556e657175616c206172726179730000604482015290519081900360640190fd5b60005b825181101561071a5760006001600160a01b03168382815181106104c257fe5b60200260200101516001600160a01b03161415610526576040805162461bcd60e51b815260206004820181905260248201527f61646444657269766174697665733a20456d7074792064657269766174697665604482015290519081900360640190fd5b60006001600160a01b031682828151811061053d57fe5b60200260200101516001600160a01b031614156105a1576040805162461bcd60e51b815260206004820181905260248201527f61646444657269766174697665733a20456d70747920756e6465726c79696e67604482015290519081900360640190fd5b60006001600160a01b03166105c88483815181106105bb57fe5b602002602001015161071f565b6001600160a01b03161461060d5760405162461bcd60e51b81526004018080602001828103825260218152602001806110026021913960400191505060405180910390fd5b61063d83828151811061061c57fe5b602002602001015183838151811061063057fe5b6020026020010151610bd9565b81818151811061064957fe5b602002602001015160008085848151811061066057fe5b60200260200101516001600160a01b03166001600160a01b0316815260200190815260200160002060006101000a8154816001600160a01b0302191690836001600160a01b031602179055508181815181106106b857fe5b60200260200101516001600160a01b03168382815181106106d557fe5b60200260200101516001600160a01b03167faa4ae250fb435bb4b31ed0b95822bc179fc6c5dd0c727c3ffe08d444025efd9860405160405180910390a36001016104a2565b505050565b6001600160a01b039081166000908152602081905260409020541690565b6040805160018082528183019092526060918291906020808301908036833701905050915061076b8461071f565b8260008151811061077857fe5b60200260200101906001600160a01b031690816001600160a01b03168152505060006001600160a01b0316826000815181106107b057fe5b60200260200101516001600160a01b031614156107fe5760405162461bcd60e51b815260040180806020018281038252602c815260200180611066602c913960400191505060405180910390fd5b604080516001808252818301909252906020808301908036833701905050905061090d846001600160a01b031663313ce5676040518163ffffffff1660e01b815260040160206040518083038186803b15801561085a57600080fd5b505afa15801561086e573d6000803e3d6000fd5b505050506040513d602081101561088457600080fd5b505160408051634ca9858360e11b8152905160ff909216600a0a91610907916001600160a01b038916916399530b0691600480820192602092909190829003018186803b1580156108d457600080fd5b505afa1580156108e8573d6000803e3d6000fd5b505050506040513d60208110156108fe57600080fd5b50518690610e6d565b90610ecf565b8160008151811061091a57fe5b6020026020010181815250509250929050565b60007f00000000000000000000000000000000000000000000000000000000000000006001600160a01b031663893d20e86040518163ffffffff1660e01b815260040160206040518083038186803b15801561098857600080fd5b505afa15801561099c573d6000803e3d6000fd5b505050506040513d60208110156109b257600080fd5b5051905090565b6109c161092d565b6001600160a01b0316336001600160a01b031614610a105760405162461bcd60e51b8152600401808060200182810382526049815260200180610fb96049913960600191505060405180910390fd5b6000815111610a505760405162461bcd60e51b8152600401808060200182810382526025815260200180610f946025913960400191505060405180910390fd5b60005b8151811015610b705760006001600160a01b0316610a768383815181106105bb57fe5b6001600160a01b03161415610ad2576040805162461bcd60e51b815260206004820181905260248201527f72656d6f766544657269766174697665733a2056616c7565206e6f7420736574604482015290519081900360640190fd5b600080838381518110610ae157fe5b60200260200101516001600160a01b03166001600160a01b0316815260200190815260200160002060006101000a8154906001600160a01b030219169055818181518110610b2b57fe5b60200260200101516001600160a01b03167fc15eb25d807b570f4567baf6e97c7b26d58a7d0512dc85e8db15375a056b860460405160405180910390a2600101610a53565b5050565b7f000000000000000000000000000000000000000000000000000000000000000090565b7f000000000000000000000000000000000000000000000000000000000000000090565b600080610bc88361071f565b6001600160a01b0316141592915050565b600080610be4610b98565b905060005b816001600160a01b031663f9c7bba5856040518263ffffffff1660e01b815260040180826001600160a01b0316815260200191505060206040518083038186803b158015610c3657600080fd5b505afa158015610c4a573d6000803e3d6000fd5b505050506040513d6020811015610c6057600080fd5b5051811015610d1457846001600160a01b0316826001600160a01b0316637bbfc69e86846040518363ffffffff1660e01b815260040180836001600160a01b031681526020018281526020019250505060206040518083038186803b158015610cc857600080fd5b505afa158015610cdc573d6000803e3d6000fd5b505050506040513d6020811015610cf257600080fd5b50516001600160a01b03161415610d0c5760019250610d14565b600101610be9565b5081610d515760405162461bcd60e51b8152600401808060200182810382526033815260200180610f616033913960400191505060405180910390fd5b826001600160a01b031663313ce5676040518163ffffffff1660e01b815260040160206040518083038186803b158015610d8a57600080fd5b505afa158015610d9e573d6000803e3d6000fd5b505050506040513d6020811015610db457600080fd5b50516040805163313ce56760e01b8152905160ff909216916001600160a01b0387169163313ce567916004808301926020929190829003018186803b158015610dfc57600080fd5b505afa158015610e10573d6000803e3d6000fd5b505050506040513d6020811015610e2657600080fd5b505160ff1614610e675760405162461bcd60e51b815260040180806020018281038252602a815260200180610f37602a913960400191505060405180910390fd5b50505050565b600082610e7c57506000610ec9565b82820282848281610e8957fe5b0414610ec65760405162461bcd60e51b81526004018080602001828103825260218152602001806110236021913960400191505060405180910390fd5b90505b92915050565b6000808211610f25576040805162461bcd60e51b815260206004820152601a60248201527f536166654d6174683a206469766973696f6e206279207a65726f000000000000604482015290519081900360640190fd5b818381610f2e57fe5b04939250505056fe5f5f76616c6964617465446572697661746976653a20496e636f6e677275656e7420646563696d616c735f5f76616c6964617465446572697661746976653a20496e76616c696420795661756c7420666f7220756e6465726c79696e6772656d6f766544657269766174697665733a20456d707479205f64657269766174697665736f6e6c7946756e644465706c6f7965724f776e65723a204f6e6c79207468652046756e644465706c6f796572206f776e65722063616e2063616c6c20746869732066756e6374696f6e61646444657269766174697665733a2056616c756520616c726561647920736574536166654d6174683a206d756c7469706c69636174696f6e206f766572666c6f7761646444657269766174697665733a20456d707479205f646572697661746976657363616c63556e6465726c79696e6756616c7565733a20556e737570706f727465642064657269766174697665a26469706673582212203202854e97da90bf5e0cc17ab8021df7ed278e9f72a711142c322d9f1ff5758f64736f6c634300060c0033",
  "devdoc": {
    "author": "Enzyme Council <security@enzyme.finance>",
    "kind": "dev",
    "methods": {
      "addDerivatives(address[],address[])": {
        "params": {
          "_derivatives": "The derivatives to add",
          "_underlyings": "The corresponding underlyings to add"
        }
      },
      "calcUnderlyingValues(address,uint256)": {
        "params": {
          "_derivative": "The derivative to convert",
          "_derivativeAmount": "The amount of the derivative to convert"
        },
        "returns": {
          "underlyingAmounts_": "The amount of each underlying asset for the equivalent derivative amount",
          "underlyings_": "The underlying assets for the _derivative"
        }
      },
      "getFundDeployer()": {
        "returns": {
          "fundDeployer_": "The `FUND_DEPLOYER` variable value"
        }
      },
      "getOwner()": {
        "details": "Ownership is deferred to the owner of the FundDeployer contract",
        "returns": {
          "owner_": "The owner"
        }
      },
      "getUnderlyingForDerivative(address)": {
        "params": {
          "_derivative": "The derivative for which to get the underlying asset"
        },
        "returns": {
          "underlying_": "The underlying asset"
        }
      },
      "getYearnVaultV2Registry()": {
        "returns": {
          "yearnVaultV2Registry_": "The `YEARN_VAULT_V2_REGISTRY` variable value"
        }
      },
      "isSupportedAsset(address)": {
        "params": {
          "_asset": "The asset to check"
        },
        "returns": {
          "isSupported_": "True if the asset is supported"
        }
      },
      "removeDerivatives(address[])": {
        "params": {
          "_derivatives": "The derivatives to remove"
        }
      }
    },
    "title": "YearnVaultV2PriceFeed Contract",
    "version": 1
  },
  "userdoc": {
    "kind": "user",
    "methods": {
      "addDerivatives(address[],address[])": {
        "notice": "Adds derivatives with corresponding underlyings to the price feed"
      },
      "calcUnderlyingValues(address,uint256)": {
        "notice": "Converts a given amount of a derivative to its underlying asset values"
      },
      "getFundDeployer()": {
        "notice": "Gets the `FUND_DEPLOYER` variable"
      },
      "getOwner()": {
        "notice": "Gets the owner of this contract"
      },
      "getUnderlyingForDerivative(address)": {
        "notice": "Gets the underlying asset for a given derivative"
      },
      "getYearnVaultV2Registry()": {
        "notice": "Gets the `YEARN_VAULT_V2_REGISTRY` variable"
      },
      "isSupportedAsset(address)": {
        "notice": "Checks if an asset is supported by the price feed"
      },
      "removeDerivatives(address[])": {
        "notice": "Removes derivatives from the price feed"
      }
    },
    "notice": "Price source oracle for Yearn Vault V2 shares",
    "version": 1
  },
  "storageLayout": {
    "storage": [
      {
        "astId": 41028,
        "contract": "contracts/release/infrastructure/price-feeds/derivatives/feeds/YearnVaultV2PriceFeed.sol:YearnVaultV2PriceFeed",
        "label": "derivativeToUnderlying",
        "offset": 0,
        "slot": "0",
        "type": "t_mapping(t_address,t_address)"
      }
    ],
    "types": {
      "t_address": {
        "encoding": "inplace",
        "label": "address",
        "numberOfBytes": "20"
      },
      "t_mapping(t_address,t_address)": {
        "encoding": "mapping",
        "key": "t_address",
        "label": "mapping(address => address)",
        "numberOfBytes": "32",
        "value": "t_address"
      }
    }
  }
}